{
  "contractName": "DeliverBaggage",
  "abi": [
    {
      "constant": true,
      "inputs": [
        {
          "name": "",
          "type": "uint256"
        }
      ],
      "name": "baggageToOwner",
      "outputs": [
        {
          "name": "",
          "type": "address"
        }
      ],
      "payable": false,
      "stateMutability": "view",
      "type": "function"
    },
    {
      "constant": true,
      "inputs": [
        {
          "name": "",
          "type": "uint256"
        }
      ],
      "name": "baggages",
      "outputs": [
        {
          "name": "currentOwner",
          "type": "address"
        },
        {
          "name": "dest",
          "type": "address"
        },
        {
          "name": "finalDest",
          "type": "address"
        },
        {
          "name": "locX",
          "type": "uint256"
        },
        {
          "name": "locY",
          "type": "uint256"
        }
      ],
      "payable": false,
      "stateMutability": "view",
      "type": "function"
    },
    {
      "constant": false,
      "inputs": [
        {
          "name": "_currentOwner",
          "type": "address"
        },
        {
          "name": "_dest",
          "type": "address"
        },
        {
          "name": "_finalDest",
          "type": "address"
        },
        {
          "name": "_locX",
          "type": "uint256"
        },
        {
          "name": "_locY",
          "type": "uint256"
        }
      ],
      "name": "_createBaggage",
      "outputs": [],
      "payable": false,
      "stateMutability": "nonpayable",
      "type": "function"
    },
    {
      "constant": false,
      "inputs": [
        {
          "name": "_baggageId",
          "type": "uint256"
        },
        {
          "name": "_dest",
          "type": "address"
        },
        {
          "name": "_nextOwner",
          "type": "address"
        },
        {
          "name": "_locX",
          "type": "uint256"
        },
        {
          "name": "_locY",
          "type": "uint256"
        }
      ],
      "name": "_deliverBaggages",
      "outputs": [],
      "payable": false,
      "stateMutability": "nonpayable",
      "type": "function"
    }
  ],
  "bytecode": "0x608060405234801561001057600080fd5b5061078c806100206000396000f300608060405260043610610062576000357c0100000000000000000000000000000000000000000000000000000000900463ffffffff1680633e6d836a146100675780638e3eeea4146100e8578063da07ac3d14610155578063f82b297f146101ec575b600080fd5b34801561007357600080fd5b506100e660048036038101908080359060200190929190803573ffffffffffffffffffffffffffffffffffffffff169060200190929190803573ffffffffffffffffffffffffffffffffffffffff16906020019092919080359060200190929190803590602001909291905050506102cd565b005b3480156100f457600080fd5b5061011360048036038101908080359060200190929190505050610456565b604051808273ffffffffffffffffffffffffffffffffffffffff1673ffffffffffffffffffffffffffffffffffffffff16815260200191505060405180910390f35b34801561016157600080fd5b506101ea600480360381019080803573ffffffffffffffffffffffffffffffffffffffff169060200190929190803573ffffffffffffffffffffffffffffffffffffffff169060200190929190803573ffffffffffffffffffffffffffffffffffffffff1690602001909291908035906020019092919080359060200190929190505050610489565b005b3480156101f857600080fd5b50610217600480360381019080803590602001909291905050506106bb565b604051808673ffffffffffffffffffffffffffffffffffffffff1673ffffffffffffffffffffffffffffffffffffffff1681526020018573ffffffffffffffffffffffffffffffffffffffff1673ffffffffffffffffffffffffffffffffffffffff1681526020018473ffffffffffffffffffffffffffffffffffffffff1673ffffffffffffffffffffffffffffffffffffffff1681526020018381526020018281526020019550505050505060405180910390f35b6000858154811015156102dc57fe5b906000526020600020906005020160000160009054906101000a900473ffffffffffffffffffffffffffffffffffffffff1673ffffffffffffffffffffffffffffffffffffffff163373ffffffffffffffffffffffffffffffffffffffff1614151561034757600080fd5b8360008681548110151561035757fe5b906000526020600020906005020160010160006101000a81548173ffffffffffffffffffffffffffffffffffffffff021916908373ffffffffffffffffffffffffffffffffffffffff160217905550826000868154811015156103b657fe5b906000526020600020906005020160000160006101000a81548173ffffffffffffffffffffffffffffffffffffffff021916908373ffffffffffffffffffffffffffffffffffffffff1602179055508160008681548110151561041557fe5b9060005260206000209060050201600301819055508060008681548110151561043a57fe5b9060005260206000209060050201600401819055505050505050565b60016020528060005260406000206000915054906101000a900473ffffffffffffffffffffffffffffffffffffffff1681565b60006001600060a0604051908101604052808973ffffffffffffffffffffffffffffffffffffffff1681526020018873ffffffffffffffffffffffffffffffffffffffff1681526020018773ffffffffffffffffffffffffffffffffffffffff168152602001868152602001858152509080600181540180825580915050906001820390600052602060002090600502016000909192909190915060008201518160000160006101000a81548173ffffffffffffffffffffffffffffffffffffffff021916908373ffffffffffffffffffffffffffffffffffffffff16021790555060208201518160010160006101000a81548173ffffffffffffffffffffffffffffffffffffffff021916908373ffffffffffffffffffffffffffffffffffffffff16021790555060408201518160020160006101000a81548173ffffffffffffffffffffffffffffffffffffffff021916908373ffffffffffffffffffffffffffffffffffffffff16021790555060608201518160030155608082015181600401555050039050336001600083815260200190815260200160002060006101000a81548173ffffffffffffffffffffffffffffffffffffffff021916908373ffffffffffffffffffffffffffffffffffffffff160217905550600260003373ffffffffffffffffffffffffffffffffffffffff1673ffffffffffffffffffffffffffffffffffffffff16815260200190815260200160002060008154809291906001019190505550505050505050565b6000818154811015156106ca57fe5b90600052602060002090600502016000915090508060000160009054906101000a900473ffffffffffffffffffffffffffffffffffffffff16908060010160009054906101000a900473ffffffffffffffffffffffffffffffffffffffff16908060020160009054906101000a900473ffffffffffffffffffffffffffffffffffffffff169080600301549080600401549050855600a165627a7a72305820c8e198ab184b91e2004f2401708ed15a6b7956473c471064240a3996efcc9d9d0029",
  "source": "pragma solidity ^0.4.22;\n\ncontract DeliverBaggage {\n  struct Baggage {\n    address currentOwner;\n    address dest;\n    address finalDest;\n    uint locX;\n    uint locY;\n  }\n\n  Baggage[] public baggages;\n  \n  mapping (uint => address) public baggageToOwner;\n  mapping (address => uint) ownerBaggageCount;\n\n  function _createBaggage(address _currentOwner, address _dest, address _finalDest, uint _locX, uint _locY) public {\n    uint id = baggages.push(Baggage(_currentOwner, _dest, _finalDest, _locX, _locY)) - 1;\n    baggageToOwner[id] = msg.sender;\n    ownerBaggageCount[msg.sender]++;\n  }\n  \n  function _deliverBaggages(uint _baggageId, address _dest, address _nextOwner, uint _locX, uint _locY) public {\n    require(msg.sender == baggages[_baggageId].currentOwner);\n    baggages[_baggageId].dest = _dest; \n    baggages[_baggageId].currentOwner = _nextOwner;\n    baggages[_baggageId].locX = _locX;\n    baggages[_baggageId].locY = _locY;\n  }\t\n}\n",
  "sourcePath": "/Users/ksoma/hikyaku/contracts/DeliverBaggage.sol",
  "compiler": {
    "name": "solc",
    "version": "0.4.24+commit.e67f0147.Emscripten.clang"
  },
  "schemaVersion": "2.0.1",
  "updatedAt": "2018-09-08T09:09:37.977Z"
}